:10000000DBC0F5C0F4C0F3C0F2C0F1C0F0C0EFC077
:10001000EEC0EDC0ECC0EBC0EAC0E9C0E8C0E7C08C
:10002000E6C073C4E4C063C565C564C563C562C585
:1000300061C560C55FC587C45DC55CC55BC55AC584
:1000400059C558C557C57FC455C554C553C552C5B4
:1000500051C550C54FC57DC44DC54CC54BC54AC5DE
:1000600049C548C547C597C445C544C543C542C5EC
:1000700041C540C53FC56DC43DC53CC53BC53AC53E
:1000800039C538C537C58CC435C534C533C532C547
:1000900031C530C52FC589C42DC52CC52BC52AC572
:1000A00029C528C527C591C425C524C523C522C592
:1000B00021C520C51FC5AEC41DC51CC51BC51AC59D
:1000C00019C518C517C576C415C514C513C512C5FD
:1000D00011C510C50FC585C40DC50CC50BC50AC516
:1000E00009C508C507C598C405C504C503C502C52B
:1000F00001C500C5FFC490C4FDC4FCC4FBC4FAC460
:10010000F9C4F8C4F7C488C4F5C4F4C4F3C4F2C491
:10011000F1C4F0C4EFC480C4EDC4ECC4EBC4EAC4C1
:10012000E9C4E8C4E7C480C4E5C4E4C4E3C4E2C4E9
:10013000E1C4E0C4DFC4A7C4DDC4DCC4DBC4DAC4EA
:10014000D9C4D8C4D7C470C4D5C4D4C4D3C4D2C449
:10015000D1C4D0C4CFC497C4CDC4CCC4CBC4CAC44A
:10016000C9C4C8C4C7C475C4C5C4C4C4C3C4C2C494
:10017000C1C4C0C4BFC48AC4BDC4BCC4BBC4BAC4A7
:10018000B9C4B8C4B7C482C4B5C4B4C4B3C4B2C4D7
:10019000B1C4B0C4AFC48FC4ADC4ACC4ABC4AAC4F2
:1001A000A9C4A8C4A7C49EC4A5C4A4C4A3C4A2C40B
:1001B000A1C4A0C49FC496C411241FBECFE5D4E03F
:1001C000DEBFCDBF10E0A0E6B0E0E6EEF6E102C093
:1001D00005900D92AA38B107D9F711E0AAE8B0E06E
:1001E00001C01D92A934B107E1F7E4D17ACA08CF62
:1001F0003E983F98309A319A329A3D9A379A0895AC
:1002000015B887B1887F87B987B1682B67B9369AE7
:100210003699FECF85B10895FC016083458326831E
:10022000178208951F93CF93DF93EC01162F80E17F
:100230008A95F1F700C07BD480E18A95F1F700C080
:100240008881880F86D480E18A95F1F700C08F817C
:10025000812B7FD480E18A95F1F700C077D480E1CB
:100260008A95F1F700C0DF91CF911F91089528E0A2
:10027000FC01278360E0D6DF0895FC01178260E06F
:10028000D1DF08951F93CF93DF93EC01162F6460A5
:10029000C9DF83E08A95F1F70000612F6B7FCE0103
:1002A000C1DF80E18A95F1F700C0DF91CF911F9106
:1002B00008951F93CF93DF93EC01162FB3DFCE0188
:1002C000612FE0DFDF91CF911F9108950F931F936E
:1002D000CF93DF93EC01062F142F607F642BE9DFAF
:1002E0000295007F602F612BCE01E3DFDF91CF917C
:1002F0001F910F91089541E0E9DF089540E0E6DFA6
:100300000895EF92FF920F931F93CF93DF937C0199
:10031000C42FD52F6770660F660F660F6064EEDF1F
:100320000C2F1D2FC0E0D0E0F80161918F01C701B3
:10033000E2DF2196C830D105B9F7DF91CF911F9147
:100340000F91FF90EF900895FC0163816E7F6383AE
:100350006460D4DF0895FC016381262F216023832C
:100360006560CCDF0895FC0163816D7F6383646009
:10037000C5DF0895FC016381262F22602383666018
:10038000BDDF08956CE1BADF089568E1B7DF089535
:10039000FC016281262F216022836960AFDF08950E
:1003A000FC0162816E7F62836860A8DF0895FC01B2
:1003B0006281262F226022836A60A0DF0895FC01FB
:1003C00062816D7F6283686099DF0895FC016281BC
:1003D000262F246022836C6091DF0895FC016281E6
:1003E0006B7F628368608ADF0895CF93DF93CDB718
:1003F000DEB728970FB6F894DEBF0FBECDBFDE0183
:100400001196E0E6F0E028E001900D922150E1F72E
:10041000FC012481241710F4422F4150E42FF0E016
:10042000EE0FFF1FEC0FFD1F2181620F606866DF7A
:1004300028960FB6F894DEBF0FBECDBFDF91CF91E7
:10044000089562E05BDF83EF91E00197F1F700C070
:100450000000089561E052DF83EF91E00197F1F72A
:1004600000C000000895CF93DF93EC01423018F0F4
:100470008981886089834C83222329F0413019F4D3
:1004800089818460898383ED90E30197F1F700C04F
:100490000000CE016F81C6DE89EF90E00197F1F791
:1004A00000C00000CE0160E304DF84E694E0019721
:1004B000F1F700C00000CE0160E3FBDE84E694E0CB
:1004C0000197F1F700C00000CE0160E3F2DE92E395
:1004D0009A95F1F7CE0160E2ECDE82E38A95F1F7BE
:1004E00069816062CE010ADF84E08A83CE016EDF1B
:1004F000CE01B0DF82E08B83CE0166E0FFDECE016D
:10050000A0DFDF91CF910895CF93DF93EC0103D368
:100510001982CE016D814E8120E0A5DFDF91CF9160
:100520000895F2DF089543DF089549DF089530DF2D
:10053000089536DF0895E5DE0895662311F097DE0D
:1005400008959BDE0895CF92DF92EF92FF920F9372
:100550001F93CF93DF936C01F62EE72E062F172FF4
:10056000C0E0D0E006C0F80161918F01C601C3DE92
:100570002196AF2DBE2DFD0101900020E9F73197A6
:10058000EA1BFB0BCE17DF0770F3DF91CF911F91B2
:100590000F91FF90EF90DF90CF9008950895089508
:1005A000089580E0089580E0089580E0089508951A
:1005B00008950895CF93DF93CDB7DEB768970FB650
:1005C000F894DEBF0FBECDBF81E090E09ED08C01DD
:1005D0000FDE10938B0000938A008FEB81BFCE015A
:1005E000019667E240E122E017DE83ED90E3019798
:1005F000F1F700C00000CE01019693DFCE01019615
:1006000036DECE01019668E670E09DDFCE010196F0
:1006100060E040E0EADE8FE996E8A1E0815090409A
:10062000A040E1F700C00000CE01019613DF8E016B
:10063000075F1F4F0F2EF5E7CF2EF0E0DF2EF02DD6
:100640000F2EFCE7AF2EF0E0BF2EF02D80918A0038
:1006500090918B0062E0D4DDF82ECE01019660E02F
:1006600040E0C3DE00D000D000D0EDB7FEB7319639
:10067000ADB7BEB712961C930E931197D382C28268
:10068000F482158269D58DB79EB706960FB6F89499
:100690009EBF0FBE8DBFCE010196B80154DFAFE4FF
:1006A000B3EC1197F1F700C0000080918A0090919F
:1006B0008B0063E0A5DDF82ECE01019660E041E0FD
:1006C00094DE00D000D000D0EDB7FEB73196ADB7C4
:1006D000BEB712961C930E931197B382A282F48236
:1006E00015823AD58DB79EB706960FB6F8949EBF81
:1006F0000FBE8DBFCE010196B80125DFAFE4B3EC8C
:100700001197F1F700C00000A1CFF7D30895109220
:10071000950081E08093930010929200A59AAC9A84
:10072000AD9A0898099885E486BF0895880F82B924
:100730000895413208F045C0909195009923E1F762
:1007400091E090939500209393002FEF20938C00DD
:1007500010929100242F21502093900090939400A8
:1007600090919400880F892B80939400809192003F
:10077000813041F4109292008091940083B985EC0D
:1007800086BF02C085EE86BF809195008130E1F37F
:1007900080919100841710F440919100442391F0CE
:1007A000E6E9F0E0A62FB72F9F012F5F3F4F842F80
:1007B0008150280F311D81918D93E217F307D9F7EE
:1007C00001C040E0842F08950F93CF93DF9341320F
:1007D00008F051C0909195009923E1F792E0909331
:1007E0009500009393009FEF90938C0010929100DE
:1007F00040939000442389F0A62FB72FE6E9F0E05C
:10080000BF016F5F7F4F4150EB01C40FD11DAE019F
:100810009D919193E417F507D9F710929400909168
:100820009400880F892B80939400809192008130EE
:1008300041F4109292008091940083B985EC86BFB8
:1008400002C085EE86BF222341F080919500823060
:1008500021F4809195008230E1F380918C008F3FEC
:1008600061F080918C00803251F080918C00803357
:1008700041F483E007C081E005C080E003C082E06E
:1008800001C084E0DF91CF910F9108956132C0F4EF
:10089000209195002430B1F460938E006623A1F07E
:1008A000A82FB92FE6EBF0E0CF0101966150860F3B
:1008B000911D2D912193E817F907D9F780E008954C
:1008C00081E0089582E0089580E008959093D70034
:1008D0008093D60008959093D9008093D80008950E
:1008E000882319F085EC86BF089585E886BF0895B2
:1008F00085ED86BF06B604FCFDCF109295000895E5
:1009000085EC86BF1092950008951F920F920FB646
:100910000F9211242F933F934F935F936F937F9385
:100920008F939F93AF93BF93EF93FF9381B190E029
:10093000887F9070893C910508F0DCC08D5E9F4FE8
:100940008F939F9308958091940083B981E0C8DFCD
:10095000D1C09091910080919000981770F480918F
:100960009100E6E9F0E0E80FF11D908193B98F5F07
:100970008093910081E0B4DFBDC080919300882313
:1009800011F0B6DFB7C081E08093920084EA86BFA1
:1009900010929500AFC080E280938C00A9DFAAC0BE
:1009A00080E380938C00A4DFA5C088E380938C0053
:1009B000A7DFA0C08091910093B1E6E9F0E0E80FD5
:1009C000F11D90838F5F80939100909191008091B1
:1009D0009000981718F481E083DF8CC080E080DFFE
:1009E00089C08091910093B1E6E9F0E0E80FF11D34
:1009F00090838F5F8093910080919300882311F002
:100A000077DF78C081E08093920084EA86BF1092FD
:100A1000950070C06DDF6EC083E0809395001092EA
:100A20008D0081E05DDF66C080918D00803270F4C2
:100A300080918D0093B1EAEDF0E0E80FF11D908315
:100A40008F5F80938D0081E04BDF54C080E048DFF2
:100A500051C080918D00803238F480918D00EAED94
:100A6000F0E0E80FF11D108243DF60918D00E0910E
:100A7000D600F091D7008AED90E070E009951092D1
:100A80008D003EDF37C080E02BDF34C084E08093F0
:100A9000950010928F0010928E00E091D800F09196
:100AA000D900099580918E00882329F481E08093F4
:100AB0008E001092B60080918F00E6EBF0E0E80F18
:100AC000F11D908193B98F5F80938F0090918F007B
:100AD00080918E00981718F481E002DF0BC080E04F
:100AE000FFDE08C081E0FCDE1092950003C010928A
:100AF0008C00FEDEFF91EF91BF91AF919F918F919E
:100B00007F916F915F914F913F912F910F900FBE09
:100B10000F901F9018958CE382B988E180B984E02A
:100B200086BF81E0089506B607FEFDCF089584EAEA
:100B300086BFF9DF81B1883029F081B1803121F0A1
:100B400081B108958FEF08958FEF089584E986BFEE
:100B50000895CF93C82FE7DFC3B984E886BFE3DFEA
:100B600081B1883211F081B101C08FEFCF9108952A
:100B7000CF93C82FD8DFC3B984E886BFD4DF81B153
:100B8000883129F081B1803421F081B103C08FEF29
:100B900001C08FEFCF9108951F93CF93DF93EC01A6
:100BA000162FC1DF112319F084EC86BF02C084E840
:100BB00086BFB9DF83B1888381B1883511F41123F1
:100BC00029F081B1803521F081B103C08FEF01C0E0
:100BD0008FEFDF91CF911F910895CF92DF92EF9227
:100BE000FF920F931F93CF93DF936C01DC018C91E5
:100BF0008C3309F458C08601FF24EE2498DFC82FF7
:100C00008F3F21F4F8018081B3DFC82FD8018C9188
:100C100080FF08C011968C911197882399F1CF3FDE
:100C2000D1F030C0F8018181882361F1CF3F51F5C7
:100C3000DE2DD8011296ED91FC911397ED0FF11D69
:100C4000808187DFC82FDF5FF8018181D817D0F45A
:100C5000CF3F79F317C0DE2DD80112968D919C916C
:100C600013979C012F5F3F4F13963C932E9312973F
:100C70006D2F92DFC82FDF5FF8018181D81710F444
:100C8000CF3F51F3F3940F2D10E0000F111F000F11
:100C9000111F0C0D1D1DD8018C918C3329F0CF3FF5
:100CA00009F4ACCF01C0CFEF51DF8C2FDF91CF9192
:100CB0001F910F91FF90EF90DF90CF9008950F93C9
:100CC0001F93CF939C010091FB001091FC00011534
:100CD000110519F190912401809123019817E8F0F2
:100CE000161617069CF480E090E0C0E045E251E063
:100CF000F901EC0FF11DE081840F951FDC01EC93ED
:100D0000CF5F8C2F90E08617970794F31092240101
:100D100060932301CB01F8010995CF911F910F91A9
:100D20000895E091FD00F091FE00309729F01092B7
:100D3000010110920001099508950895109224016F
:100D4000109223011092010110920001E0DC08953D
:100D5000CF93DF93EC01862FE9DC81E996E0BBDDE0
:100D60008FE596E0B3DDCE01E9DFDF91CF91089505
:100D7000EFDF0895862F413208F040E265E271E02E
:100D8000D8DC1092240180932301089521E0F2DF42
:100D9000089521E0EFDF0895EDDF089581E080936D
:100DA000FF0060932201109201011092000108954A
:100DB000F5DF08950F93062F8091220162E071E024
:100DC0004091000121E000DD10920101109200012C
:100DD0001092FF000F91089561E0ECDF0895CF932A
:100DE000DF930F92CDB7DEB769838091FF00882330
:100DF00099F0809100018032B0F480910101E2E02D
:100E0000F1E0E80FF11D60838F5F80930101809313
:100E1000000181E090E009C0CE01019661E036DD7D
:100E200081E090E002C080E090E00F90DF91CF91F0
:100E30000895CF92DF92EF92FF920F931F93CF937B
:100E4000DF936C017A018091FF00882389F04115BE
:100E5000510591F0062F172FC0E0D0E0F801619105
:100E60008F01C601BCDF2196CE15DF05B9F704C09E
:100E7000862F972F642F0ADD8E2D9F2DDF91CF9126
:100E80001F910F91FF90EF90DF90CF900895809188
:100E9000230190E020912401821B91090895209163
:100EA000240180912301281750F4E5E2F1E0E20FDC
:100EB000F11D808190E02F5F2093240108958FEF32
:100EC0009FEF08958091240190912301891738F4B0
:100ED000E5E2F1E0E80FF11D808190E008958FEFE9
:100EE0009FEF089508957093FC006093FB000895B0
:100EF0007093FE006093FD000895CF93DF93AC01E3
:100F00008230910510F442E050E0E0914701F09109
:100F1000480120E030E0A0E0B0E024C08081918171
:100F200084179507D0F08417950771F48281938117
:100F3000109729F013969C938E9312972CC0909340
:100F400048018093470127C02115310519F0821708
:100F5000930718F49C01BD01EF0192818381DF01A9
:100F6000E92FF82F3097D1F621153105F9F0C90195
:100F7000841B950B8430910580F48A819B816115D7
:100F8000710521F0FB019383828304C09093480193
:100F900080934701FE01329642C0FE01E80FF91F1F
:100FA0004193519302979983888339C08091450179
:100FB00090914601009741F48091850090918600C0
:100FC00090934601809345012091830030918400E5
:100FD0002115310541F42DB73EB7809187009091DE
:100FE0008800281B390BE0914501F0914601E2177A
:100FF000F30798F42E1B3F0B2417350770F0CA0136
:1010000002962817390748F08E0F9F1F90934601CC
:10101000809345014193519302C0E0E0F0E0CF019D
:10102000DF91CF9108950F931F93CF93DF939C018E
:10103000009709F48CC0DC01129713961C921E9243
:10104000129760914701709148016115710589F40B
:101050008D919C911197820F931F209145013091A2
:1010600046012817390769F5B0934601A093450159
:101070006EC0FB0140E050E001C0FC01EA17FB0735
:1010800030F482819381AF010097B9F71FC0E90165
:101090002297FB83EA8308811981C901800F911F80
:1010A0008E179F0759F480819181800F911F0296BE
:1010B00099838883828193819B838A83411551051B
:1010C00029F4B0934801A093470141C0FA01B383CA
:1010D000A283C191D191EC0FFD1FAE17BF0781F420
:1010E000F901929182918C0F9D1F0296DA0111965F
:1010F0009C938E938281938113969C938E931297E7
:10110000E0E0F0E002C0FB01BC01DB0112968D9132
:101110009C9113970097B9F7CB0102962D913C91C2
:101120001197820F931F2091450130914601281796
:10113000390769F4309729F4109248011092470159
:1011400002C0138212827093460160934501DF91C1
:10115000CF911F910F910895AEE0B0E0E1EBF8E080
:1011600097C20D891E8986E08C831A8309838FEFCD
:101170009FE79E838D83AE01475E5F4FCE01019650
:101180006F89788D08D0EF81F885E00FF11F10820C
:101190002E96E4E099C2ADE0B0E0E0EDF8E06AC27E
:1011A0003C017D876C875A01FC011782168283817E
:1011B00081FFBBC12E010894411C511CF301938196
:1011C000EC85FD8593FD859193FF8191FD87EC87EB
:1011D000882309F4A6C1853241F493FD859193FFDC
:1011E0008191FD87EC87853221F490E0B301B8D17D
:1011F000E5CFFF24EE2410E01032B0F48B3269F01A
:101200008C3228F4803251F0833271F40BC08D326D
:1012100039F0803349F411602CC01260146029C089
:10122000186027C0106125C017FD2EC0282F20533D
:101230002A3098F416FF08C08F2D880FF82EFF0C67
:10124000FF0CF80EF20E15C08E2D880FE82EEE0C56
:10125000EE0CE80EE20E10620CC08E3221F416FD88
:1012600060C1106406C08C3611F4106802C0883664
:1012700059F4EC85FD8593FD859193FF8191FD8760
:10128000EC87882309F0B8CF982F9554933018F045
:101290009052933038F424E030E0A20EB31E3FE3C6
:1012A00039830FC0833631F0833781F0833509F0FD
:1012B00056C021C0F5018081898322E030E0A20E72
:1012C000B31E21E0C22ED12C420113C092E0292E80
:1012D000312C2A0C3B1CF5018080918016FF03C045
:1012E0006F2D70E002C06FEF7FEFC4012ED16C0153
:1012F00051011F7714C082E0282E312C2A0C3B1C90
:10130000F5018080918016FF03C06F2D70E002C050
:101310006FEF7FEFC4010ED16C011068510113FD16
:101320001AC005C080E290E0B3011AD1EA948E2D74
:1013300090E0C816D906B0F30EC0F40117FD8591F0
:1013400017FF81914F0190E0B3010AD1E110EA94B7
:101350000894C108D108C114D10479F7DFC08436DC
:1013600011F0893649F5F50117FF07C08081918199
:10137000A281B38124E030E008C080819181AA2756
:1013800097FDA095BA2F22E030E0A20EB31E012FE8
:101390000F76B7FF08C0B095A095909581959F4FA7
:1013A000AF4FBF4F0068BC01CD01A2012AE030E081
:1013B00003D1D82ED4183EC0853721F41F7E2AE0F1
:1013C00030E020C0197F8F36A9F0803720F48835AF
:1013D00009F0A7C00BC0803721F0883709F0A1C001
:1013E00001C0106114FF09C0146007C014FF08C0D9
:1013F000166006C028E030E005C020E130E002C001
:1014000020E132E0F50117FF07C060817181828120
:10141000938144E050E006C06081718180E090E0FB
:1014200042E050E0A40EB51EA201C6D0D82ED418BA
:10143000012F0F7706FF09C00E7FDF1430F404FF81
:1014400006C002FD04C00F7E02C01D2D01C01F2D6D
:10145000802F90E004FF0CC0FE01ED0DF11D2081F6
:10146000203311F4097E09C002FF06C01E5F05C0CB
:1014700086789070009709F01F5F802E992403FDF5
:1014800011C000FF0CC0FD2C1E1548F4FE0CF11A13
:101490001E2D05C080E290E0B30162D01F5F1E15D3
:1014A000C8F304C01E1510F4E11A01C0EE2484FE36
:1014B0000EC080E390E0B30153D082FE1DC081FED8
:1014C00003C088E590E010C088E790E00DC0C4013B
:1014D00086789070009781F081FC02C080E201C0A4
:1014E0008BE207FD8DE290E0B3013AD005C080E3C6
:1014F00090E0B30135D0FA94DF14C8F3DA94F20126
:10150000ED0DF11D808190E0B3012AD0DD20B1F70F
:1015100005C080E290E0B30123D0EA94EE20C9F741
:101520004DCEF3018681978102C08FEF9FEF2D96FC
:10153000E2E1BCC0FC010590615070400110D8F799
:10154000809590958E0F9F1F0895FC01615070400B
:1015500001900110D8F7809590958E0F9F1F0895E8
:101560000F931F93CF93DF938C01EB018B8181FF4E
:101570001BC082FF0DC02E813F818C819D81281769
:10158000390764F4E881F9810193F983E88306C09F
:10159000E885F985802F0995009731F48E819F8128
:1015A00001969F838E8302C00FEF1FEFC801DF916A
:1015B000CF911F910F910895FA01AA27283051F178
:1015C000203181F1E8946F936E7F6E5F7F4F8F4F74
:1015D0009F4FAF4FB1E03ED0B4E03CD0670F781FD3
:1015E000891F9A1FA11D680F791F8A1F911DA11DB8
:1015F0006A0F711D811D911DA11D20D009F46894F1
:101600003F912AE0269F11243019305D3193DEF698
:10161000CF010895462F4770405D4193B3E00FD04E
:10162000C9F7F6CF462F4F70405D4A3318F0495D39
:1016300031FD4052419302D0A9F7EACFB4E0A6951C
:101640009795879577956795BA95C9F7009761053E
:10165000710508959B01AC010A2E06945795479594
:1016600037952795BA95C9F7620F731F841F951F89
:10167000A01D08952F923F924F925F926F927F929A
:101680008F929F92AF92BF92CF92DF92EF92FF9292
:101690000F931F93CF93DF93CDB7DEB7CA1BDB0B3E
:1016A0000FB6F894DEBF0FBECDBF09942A883988E3
:1016B00048885F846E847D848C849B84AA84B984EA
:1016C000C884DF80EE80FD800C811B81AA81B981F6
:1016D000CE0FD11D0FB6F894DEBF0FBECDBFED010A
:0616E0000895F894FFCF0D
:1016E6000000400014005400414420707265766F7B
:1016F600646E696B0053313A2535640053323A25DE
:0A17060035640000004901200000D6
:00000001FF
